{
  "_format": "hh-sol-artifact-1",
  "contractName": "Vault",
  "sourceName": "contracts/Vault.sol",
  "abi": [
    {
      "inputs": [
        {
          "internalType": "bytes32",
          "name": "_password",
          "type": "bytes32"
        }
      ],
      "stateMutability": "nonpayable",
      "type": "constructor"
    },
    {
      "anonymous": false,
      "inputs": [
        {
          "indexed": true,
          "internalType": "address",
          "name": "previousOwner",
          "type": "address"
        },
        {
          "indexed": true,
          "internalType": "address",
          "name": "newOwner",
          "type": "address"
        }
      ],
      "name": "OwnershipTransferred",
      "type": "event"
    },
    {
      "inputs": [],
      "name": "deposit",
      "outputs": [],
      "stateMutability": "payable",
      "type": "function"
    },
    {
      "inputs": [],
      "name": "owner",
      "outputs": [
        {
          "internalType": "address",
          "name": "",
          "type": "address"
        }
      ],
      "stateMutability": "view",
      "type": "function"
    },
    {
      "inputs": [],
      "name": "renounceOwnership",
      "outputs": [],
      "stateMutability": "nonpayable",
      "type": "function"
    },
    {
      "inputs": [
        {
          "internalType": "address",
          "name": "newOwner",
          "type": "address"
        }
      ],
      "name": "transferOwnership",
      "outputs": [],
      "stateMutability": "nonpayable",
      "type": "function"
    },
    {
      "inputs": [
        {
          "internalType": "bytes32",
          "name": "_password",
          "type": "bytes32"
        }
      ],
      "name": "withdraw",
      "outputs": [],
      "stateMutability": "nonpayable",
      "type": "function"
    }
  ],
  "bytecode": "0x608060405234801561001057600080fd5b506040516107fd3803806107fd83398181016040528101906100329190610162565b61004e61004361005b60201b60201c565b61006360201b60201c565b806001819055505061018f565b600033905090565b60008060009054906101000a900473ffffffffffffffffffffffffffffffffffffffff169050816000806101000a81548173ffffffffffffffffffffffffffffffffffffffff021916908373ffffffffffffffffffffffffffffffffffffffff1602179055508173ffffffffffffffffffffffffffffffffffffffff168173ffffffffffffffffffffffffffffffffffffffff167f8be0079c531659141344cd1fd0a4f28419497f9722a3daafe3b4186f6b6457e060405160405180910390a35050565b600080fd5b6000819050919050565b61013f8161012c565b811461014a57600080fd5b50565b60008151905061015c81610136565b92915050565b60006020828403121561017857610177610127565b5b60006101868482850161014d565b91505092915050565b61065f8061019e6000396000f3fe60806040526004361061004a5760003560e01c8063715018a61461004f5780638da5cb5b146100665780638e19899e14610091578063d0e30db0146100ba578063f2fde38b146100c4575b600080fd5b34801561005b57600080fd5b506100646100ed565b005b34801561007257600080fd5b5061007b610101565b60405161008891906103d2565b60405180910390f35b34801561009d57600080fd5b506100b860048036038101906100b39190610428565b61012a565b005b6100c26101ba565b005b3480156100d057600080fd5b506100eb60048036038101906100e69190610481565b6101c4565b005b6100f5610247565b6100ff60006102c5565b565b60008060009054906101000a900473ffffffffffffffffffffffffffffffffffffffff16905090565b80806001541461016f576040517f08c379a00000000000000000000000000000000000000000000000000000000081526004016101669061050b565b60405180910390fd5b3373ffffffffffffffffffffffffffffffffffffffff166108fc479081150290604051600060405180830381858888f193505050501580156101b5573d6000803e3d6000fd5b505050565b6101c2610247565b565b6101cc610247565b600073ffffffffffffffffffffffffffffffffffffffff168173ffffffffffffffffffffffffffffffffffffffff160361023b576040517f08c379a00000000000000000000000000000000000000000000000000000000081526004016102329061059d565b60405180910390fd5b610244816102c5565b50565b61024f610389565b73ffffffffffffffffffffffffffffffffffffffff1661026d610101565b73ffffffffffffffffffffffffffffffffffffffff16146102c3576040517f08c379a00000000000000000000000000000000000000000000000000000000081526004016102ba90610609565b60405180910390fd5b565b60008060009054906101000a900473ffffffffffffffffffffffffffffffffffffffff169050816000806101000a81548173ffffffffffffffffffffffffffffffffffffffff021916908373ffffffffffffffffffffffffffffffffffffffff1602179055508173ffffffffffffffffffffffffffffffffffffffff168173ffffffffffffffffffffffffffffffffffffffff167f8be0079c531659141344cd1fd0a4f28419497f9722a3daafe3b4186f6b6457e060405160405180910390a35050565b600033905090565b600073ffffffffffffffffffffffffffffffffffffffff82169050919050565b60006103bc82610391565b9050919050565b6103cc816103b1565b82525050565b60006020820190506103e760008301846103c3565b92915050565b600080fd5b6000819050919050565b610405816103f2565b811461041057600080fd5b50565b600081359050610422816103fc565b92915050565b60006020828403121561043e5761043d6103ed565b5b600061044c84828501610413565b91505092915050565b61045e816103b1565b811461046957600080fd5b50565b60008135905061047b81610455565b92915050565b600060208284031215610497576104966103ed565b5b60006104a58482850161046c565b91505092915050565b600082825260208201905092915050565b7f57726f6e672070617373776f7264000000000000000000000000000000000000600082015250565b60006104f5600e836104ae565b9150610500826104bf565b602082019050919050565b60006020820190508181036000830152610524816104e8565b9050919050565b7f4f776e61626c653a206e6577206f776e657220697320746865207a65726f206160008201527f6464726573730000000000000000000000000000000000000000000000000000602082015250565b60006105876026836104ae565b91506105928261052b565b604082019050919050565b600060208201905081810360008301526105b68161057a565b9050919050565b7f4f776e61626c653a2063616c6c6572206973206e6f7420746865206f776e6572600082015250565b60006105f36020836104ae565b91506105fe826105bd565b602082019050919050565b60006020820190508181036000830152610622816105e6565b905091905056fea2646970667358221220dd004817221910e870e156c1f6659955a078a3884e8f1349312acba8f033457e64736f6c63430008120033",
  "linkReferences": {},
  "deployedLinkReferences": {}
}