{
  "_format": "hh-sol-artifact-1",
  "contractName": "AgreedPrice",
  "sourceName": "contracts/AgreedPrice.sol",
  "abi": [
    {
      "inputs": [
        {
          "internalType": "uint256",
          "name": "_price",
          "type": "uint256"
        }
      ],
      "stateMutability": "nonpayable",
      "type": "constructor"
    },
    {
      "anonymous": false,
      "inputs": [
        {
          "indexed": true,
          "internalType": "address",
          "name": "previousOwner",
          "type": "address"
        },
        {
          "indexed": true,
          "internalType": "address",
          "name": "newOwner",
          "type": "address"
        }
      ],
      "name": "OwnershipTransferred",
      "type": "event"
    },
    {
      "inputs": [],
      "name": "owner",
      "outputs": [
        {
          "internalType": "address",
          "name": "",
          "type": "address"
        }
      ],
      "stateMutability": "view",
      "type": "function"
    },
    {
      "inputs": [],
      "name": "price",
      "outputs": [
        {
          "internalType": "uint256",
          "name": "",
          "type": "uint256"
        }
      ],
      "stateMutability": "view",
      "type": "function"
    },
    {
      "inputs": [],
      "name": "renounceOwnership",
      "outputs": [],
      "stateMutability": "nonpayable",
      "type": "function"
    },
    {
      "inputs": [
        {
          "internalType": "address",
          "name": "newOwner",
          "type": "address"
        }
      ],
      "name": "transferOwnership",
      "outputs": [],
      "stateMutability": "nonpayable",
      "type": "function"
    },
    {
      "inputs": [
        {
          "internalType": "uint256",
          "name": "_price",
          "type": "uint256"
        }
      ],
      "name": "updatePrice",
      "outputs": [],
      "stateMutability": "nonpayable",
      "type": "function"
    }
  ],
  "bytecode": "0x608060405234801561001057600080fd5b5060405161072638038061072683398181016040528101906100329190610162565b61004e61004361005b60201b60201c565b61006360201b60201c565b806001819055505061018f565b600033905090565b60008060009054906101000a900473ffffffffffffffffffffffffffffffffffffffff169050816000806101000a81548173ffffffffffffffffffffffffffffffffffffffff021916908373ffffffffffffffffffffffffffffffffffffffff1602179055508173ffffffffffffffffffffffffffffffffffffffff168173ffffffffffffffffffffffffffffffffffffffff167f8be0079c531659141344cd1fd0a4f28419497f9722a3daafe3b4186f6b6457e060405160405180910390a35050565b600080fd5b6000819050919050565b61013f8161012c565b811461014a57600080fd5b50565b60008151905061015c81610136565b92915050565b60006020828403121561017857610177610127565b5b60006101868482850161014d565b91505092915050565b6105888061019e6000396000f3fe608060405234801561001057600080fd5b50600436106100575760003560e01c8063715018a61461005c5780638d6cc56d146100665780638da5cb5b14610082578063a035b1fe146100a0578063f2fde38b146100be575b600080fd5b6100646100da565b005b610080600480360381019061007b9190610337565b6100ee565b005b61008a610100565b60405161009791906103a5565b60405180910390f35b6100a8610129565b6040516100b591906103cf565b60405180910390f35b6100d860048036038101906100d39190610416565b61012f565b005b6100e26101b2565b6100ec6000610230565b565b6100f66101b2565b8060018190555050565b60008060009054906101000a900473ffffffffffffffffffffffffffffffffffffffff16905090565b60015481565b6101376101b2565b600073ffffffffffffffffffffffffffffffffffffffff168173ffffffffffffffffffffffffffffffffffffffff16036101a6576040517f08c379a000000000000000000000000000000000000000000000000000000000815260040161019d906104c6565b60405180910390fd5b6101af81610230565b50565b6101ba6102f4565b73ffffffffffffffffffffffffffffffffffffffff166101d8610100565b73ffffffffffffffffffffffffffffffffffffffff161461022e576040517f08c379a000000000000000000000000000000000000000000000000000000000815260040161022590610532565b60405180910390fd5b565b60008060009054906101000a900473ffffffffffffffffffffffffffffffffffffffff169050816000806101000a81548173ffffffffffffffffffffffffffffffffffffffff021916908373ffffffffffffffffffffffffffffffffffffffff1602179055508173ffffffffffffffffffffffffffffffffffffffff168173ffffffffffffffffffffffffffffffffffffffff167f8be0079c531659141344cd1fd0a4f28419497f9722a3daafe3b4186f6b6457e060405160405180910390a35050565b600033905090565b600080fd5b6000819050919050565b61031481610301565b811461031f57600080fd5b50565b6000813590506103318161030b565b92915050565b60006020828403121561034d5761034c6102fc565b5b600061035b84828501610322565b91505092915050565b600073ffffffffffffffffffffffffffffffffffffffff82169050919050565b600061038f82610364565b9050919050565b61039f81610384565b82525050565b60006020820190506103ba6000830184610396565b92915050565b6103c981610301565b82525050565b60006020820190506103e460008301846103c0565b92915050565b6103f381610384565b81146103fe57600080fd5b50565b600081359050610410816103ea565b92915050565b60006020828403121561042c5761042b6102fc565b5b600061043a84828501610401565b91505092915050565b600082825260208201905092915050565b7f4f776e61626c653a206e6577206f776e657220697320746865207a65726f206160008201527f6464726573730000000000000000000000000000000000000000000000000000602082015250565b60006104b0602683610443565b91506104bb82610454565b604082019050919050565b600060208201905081810360008301526104df816104a3565b9050919050565b7f4f776e61626c653a2063616c6c6572206973206e6f7420746865206f776e6572600082015250565b600061051c602083610443565b9150610527826104e6565b602082019050919050565b6000602082019050818103600083015261054b8161050f565b905091905056fea2646970667358221220ce234ce8be99e5c1db45ffe9d42d20e6ea60083b937fe2ecece39944ac1bc9ae64736f6c63430008120033",
  "linkReferences": {},
  "deployedLinkReferences": {}
}