{
  "_format": "hh-sol-artifact-1",
  "contractName": "AuctionV2",
  "sourceName": "contracts/AuctionV2.sol",
  "abi": [
    {
      "inputs": [],
      "name": "bid",
      "outputs": [],
      "stateMutability": "payable",
      "type": "function"
    },
    {
      "inputs": [],
      "name": "currentLeader",
      "outputs": [
        {
          "internalType": "address payable",
          "name": "",
          "type": "address"
        }
      ],
      "stateMutability": "view",
      "type": "function"
    },
    {
      "inputs": [],
      "name": "highestBid",
      "outputs": [
        {
          "internalType": "uint256",
          "name": "",
          "type": "uint256"
        }
      ],
      "stateMutability": "view",
      "type": "function"
    },
    {
      "inputs": [
        {
          "internalType": "address",
          "name": "",
          "type": "address"
        }
      ],
      "name": "refunds",
      "outputs": [
        {
          "internalType": "uint256",
          "name": "",
          "type": "uint256"
        }
      ],
      "stateMutability": "view",
      "type": "function"
    },
    {
      "inputs": [],
      "name": "withdrawRefund",
      "outputs": [],
      "stateMutability": "nonpayable",
      "type": "function"
    }
  ],
  "bytecode": "0x608060405234801561001057600080fd5b50600160008190555061088e806100286000396000f3fe60806040526004361061004a5760003560e01c8063110f88741461004f5780631998aeef14610066578063ac4bd53a14610070578063bc3da5351461009b578063d57bde79146100d8575b600080fd5b34801561005b57600080fd5b50610064610103565b005b61006e6101c8565b005b34801561007c57600080fd5b50610085610337565b6040516100929190610509565b60405180910390f35b3480156100a757600080fd5b506100c260048036038101906100bd9190610567565b61035d565b6040516100cf91906105ad565b60405180910390f35b3480156100e457600080fd5b506100ed610375565b6040516100fa91906105ad565b60405180910390f35b61010b61037b565b6000600360003373ffffffffffffffffffffffffffffffffffffffff1673ffffffffffffffffffffffffffffffffffffffff1681526020019081526020016000205490506000600360003373ffffffffffffffffffffffffffffffffffffffff1673ffffffffffffffffffffffffffffffffffffffff168152602001908152602001600020819055506101bd813373ffffffffffffffffffffffffffffffffffffffff166103ca90919063ffffffff16565b506101c66104be565b565b6101d061037b565b6002543411610214576040517f08c379a000000000000000000000000000000000000000000000000000000000815260040161020b90610625565b60405180910390fd5b600073ffffffffffffffffffffffffffffffffffffffff16600160009054906101000a900473ffffffffffffffffffffffffffffffffffffffff1673ffffffffffffffffffffffffffffffffffffffff16146102e55760025460036000600160009054906101000a900473ffffffffffffffffffffffffffffffffffffffff1673ffffffffffffffffffffffffffffffffffffffff1673ffffffffffffffffffffffffffffffffffffffff16815260200190815260200160002060008282546102dd9190610674565b925050819055505b33600160006101000a81548173ffffffffffffffffffffffffffffffffffffffff021916908373ffffffffffffffffffffffffffffffffffffffff160217905550346002819055506103356104be565b565b600160009054906101000a900473ffffffffffffffffffffffffffffffffffffffff1681565b60036020528060005260406000206000915090505481565b60025481565b6002600054036103c0576040517f08c379a00000000000000000000000000000000000000000000000000000000081526004016103b7906106f4565b60405180910390fd5b6002600081905550565b8047101561040d576040517f08c379a000000000000000000000000000000000000000000000000000000000815260040161040490610760565b60405180910390fd5b60008273ffffffffffffffffffffffffffffffffffffffff1682604051610433906107b1565b60006040518083038185875af1925050503d8060008114610470576040519150601f19603f3d011682016040523d82523d6000602084013e610475565b606091505b50509050806104b9576040517f08c379a00000000000000000000000000000000000000000000000000000000081526004016104b090610838565b60405180910390fd5b505050565b6001600081905550565b600073ffffffffffffffffffffffffffffffffffffffff82169050919050565b60006104f3826104c8565b9050919050565b610503816104e8565b82525050565b600060208201905061051e60008301846104fa565b92915050565b600080fd5b6000610534826104c8565b9050919050565b61054481610529565b811461054f57600080fd5b50565b6000813590506105618161053b565b92915050565b60006020828403121561057d5761057c610524565b5b600061058b84828501610552565b91505092915050565b6000819050919050565b6105a781610594565b82525050565b60006020820190506105c2600083018461059e565b92915050565b600082825260208201905092915050565b7f426964206e6f74206869676820656e6f75676800000000000000000000000000600082015250565b600061060f6013836105c8565b915061061a826105d9565b602082019050919050565b6000602082019050818103600083015261063e81610602565b9050919050565b7f4e487b7100000000000000000000000000000000000000000000000000000000600052601160045260246000fd5b600061067f82610594565b915061068a83610594565b92508282019050808211156106a2576106a1610645565b5b92915050565b7f5265656e7472616e637947756172643a207265656e7472616e742063616c6c00600082015250565b60006106de601f836105c8565b91506106e9826106a8565b602082019050919050565b6000602082019050818103600083015261070d816106d1565b9050919050565b7f416464726573733a20696e73756666696369656e742062616c616e6365000000600082015250565b600061074a601d836105c8565b915061075582610714565b602082019050919050565b600060208201905081810360008301526107798161073d565b9050919050565b600081905092915050565b50565b600061079b600083610780565b91506107a68261078b565b600082019050919050565b60006107bc8261078e565b9150819050919050565b7f416464726573733a20756e61626c6520746f2073656e642076616c75652c207260008201527f6563697069656e74206d61792068617665207265766572746564000000000000602082015250565b6000610822603a836105c8565b915061082d826107c6565b604082019050919050565b6000602082019050818103600083015261085181610815565b905091905056fea264697066735822122031f8eb8a9277ccd3b3cbac4449cee32afb77625e36c43870d53470d02a2c33b064736f6c63430008120033",
  "linkReferences": {},
  "deployedLinkReferences": {}
}