{
  "_format": "hh-sol-artifact-1",
  "contractName": "Auction",
  "sourceName": "contracts/Auction.sol",
  "abi": [
    {
      "anonymous": false,
      "inputs": [
        {
          "indexed": true,
          "internalType": "address",
          "name": "previousOwner",
          "type": "address"
        },
        {
          "indexed": true,
          "internalType": "address",
          "name": "newOwner",
          "type": "address"
        }
      ],
      "name": "OwnershipTransferred",
      "type": "event"
    },
    {
      "inputs": [],
      "name": "bid",
      "outputs": [],
      "stateMutability": "payable",
      "type": "function"
    },
    {
      "inputs": [],
      "name": "currentLeader",
      "outputs": [
        {
          "internalType": "address payable",
          "name": "",
          "type": "address"
        }
      ],
      "stateMutability": "view",
      "type": "function"
    },
    {
      "inputs": [],
      "name": "highestBid",
      "outputs": [
        {
          "internalType": "uint256",
          "name": "",
          "type": "uint256"
        }
      ],
      "stateMutability": "view",
      "type": "function"
    },
    {
      "inputs": [],
      "name": "owner",
      "outputs": [
        {
          "internalType": "address",
          "name": "",
          "type": "address"
        }
      ],
      "stateMutability": "view",
      "type": "function"
    },
    {
      "inputs": [],
      "name": "refundAll",
      "outputs": [],
      "stateMutability": "nonpayable",
      "type": "function"
    },
    {
      "inputs": [
        {
          "internalType": "uint256",
          "name": "",
          "type": "uint256"
        }
      ],
      "name": "refunds",
      "outputs": [
        {
          "internalType": "address payable",
          "name": "addr",
          "type": "address"
        },
        {
          "internalType": "uint256",
          "name": "amount",
          "type": "uint256"
        }
      ],
      "stateMutability": "view",
      "type": "function"
    },
    {
      "inputs": [],
      "name": "renounceOwnership",
      "outputs": [],
      "stateMutability": "nonpayable",
      "type": "function"
    },
    {
      "inputs": [
        {
          "internalType": "address",
          "name": "newOwner",
          "type": "address"
        }
      ],
      "name": "transferOwnership",
      "outputs": [],
      "stateMutability": "nonpayable",
      "type": "function"
    }
  ],
  "bytecode": "0x608060405234801561001057600080fd5b5061002d61002261003960201b60201c565b61004160201b60201c565b60018081905550610105565b600033905090565b60008060009054906101000a900473ffffffffffffffffffffffffffffffffffffffff169050816000806101000a81548173ffffffffffffffffffffffffffffffffffffffff021916908373ffffffffffffffffffffffffffffffffffffffff1602179055508173ffffffffffffffffffffffffffffffffffffffff168173ffffffffffffffffffffffffffffffffffffffff167f8be0079c531659141344cd1fd0a4f28419497f9722a3daafe3b4186f6b6457e060405160405180910390a35050565b610e34806101146000396000f3fe60806040526004361061007b5760003560e01c8063ac4bd53a1161004e578063ac4bd53a146100e3578063d57bde791461010e578063e36bd0f314610139578063f2fde38b146101775761007b565b80631998aeef1461008057806338e771ab1461008a578063715018a6146100a15780638da5cb5b146100b8575b600080fd5b6100886101a0565b005b34801561009657600080fd5b5061009f610362565b005b3480156100ad57600080fd5b506100b6610441565b005b3480156100c457600080fd5b506100cd610455565b6040516100da91906108c2565b60405180910390f35b3480156100ef57600080fd5b506100f861047e565b60405161010591906108fe565b60405180910390f35b34801561011a57600080fd5b506101236104a4565b6040516101309190610932565b60405180910390f35b34801561014557600080fd5b50610160600480360381019061015b919061097e565b6104aa565b60405161016e9291906109ab565b60405180910390f35b34801561018357600080fd5b5061019e60048036038101906101999190610a00565b6104fe565b005b6101a8610581565b60035434116101ec576040517f08c379a00000000000000000000000000000000000000000000000000000000081526004016101e390610a8a565b60405180910390fd5b600073ffffffffffffffffffffffffffffffffffffffff16600260009054906101000a900473ffffffffffffffffffffffffffffffffffffffff1673ffffffffffffffffffffffffffffffffffffffff16146103105760046040518060400160405280600260009054906101000a900473ffffffffffffffffffffffffffffffffffffffff1673ffffffffffffffffffffffffffffffffffffffff168152602001600354815250908060018154018082558091505060019003906000526020600020906002020160009091909190915060008201518160000160006101000a81548173ffffffffffffffffffffffffffffffffffffffff021916908373ffffffffffffffffffffffffffffffffffffffff1602179055506020820151816001015550505b33600260006101000a81548173ffffffffffffffffffffffffffffffffffffffff021916908373ffffffffffffffffffffffffffffffffffffffff160217905550346003819055506103606105d0565b565b61036a6105d9565b610372610581565b60005b600480549050811015610428576104156004828154811061039957610398610aaa565b5b906000526020600020906002020160010154600483815481106103bf576103be610aaa565b5b906000526020600020906002020160000160009054906101000a900473ffffffffffffffffffffffffffffffffffffffff1673ffffffffffffffffffffffffffffffffffffffff1661065790919063ffffffff16565b808061042090610b08565b915050610375565b50600460006104379190610817565b61043f6105d0565b565b6104496105d9565b610453600061074b565b565b60008060009054906101000a900473ffffffffffffffffffffffffffffffffffffffff16905090565b600260009054906101000a900473ffffffffffffffffffffffffffffffffffffffff1681565b60035481565b600481815481106104ba57600080fd5b90600052602060002090600202016000915090508060000160009054906101000a900473ffffffffffffffffffffffffffffffffffffffff16908060010154905082565b6105066105d9565b600073ffffffffffffffffffffffffffffffffffffffff168173ffffffffffffffffffffffffffffffffffffffff1603610575576040517f08c379a000000000000000000000000000000000000000000000000000000000815260040161056c90610bc2565b60405180910390fd5b61057e8161074b565b50565b6002600154036105c6576040517f08c379a00000000000000000000000000000000000000000000000000000000081526004016105bd90610c2e565b60405180910390fd5b6002600181905550565b60018081905550565b6105e161080f565b73ffffffffffffffffffffffffffffffffffffffff166105ff610455565b73ffffffffffffffffffffffffffffffffffffffff1614610655576040517f08c379a000000000000000000000000000000000000000000000000000000000815260040161064c90610c9a565b60405180910390fd5b565b8047101561069a576040517f08c379a000000000000000000000000000000000000000000000000000000000815260040161069190610d06565b60405180910390fd5b60008273ffffffffffffffffffffffffffffffffffffffff16826040516106c090610d57565b60006040518083038185875af1925050503d80600081146106fd576040519150601f19603f3d011682016040523d82523d6000602084013e610702565b606091505b5050905080610746576040517f08c379a000000000000000000000000000000000000000000000000000000000815260040161073d90610dde565b60405180910390fd5b505050565b60008060009054906101000a900473ffffffffffffffffffffffffffffffffffffffff169050816000806101000a81548173ffffffffffffffffffffffffffffffffffffffff021916908373ffffffffffffffffffffffffffffffffffffffff1602179055508173ffffffffffffffffffffffffffffffffffffffff168173ffffffffffffffffffffffffffffffffffffffff167f8be0079c531659141344cd1fd0a4f28419497f9722a3daafe3b4186f6b6457e060405160405180910390a35050565b600033905090565b5080546000825560020290600052602060002090810190610838919061083b565b50565b5b8082111561087d57600080820160006101000a81549073ffffffffffffffffffffffffffffffffffffffff021916905560018201600090555060020161083c565b5090565b600073ffffffffffffffffffffffffffffffffffffffff82169050919050565b60006108ac82610881565b9050919050565b6108bc816108a1565b82525050565b60006020820190506108d760008301846108b3565b92915050565b60006108e882610881565b9050919050565b6108f8816108dd565b82525050565b600060208201905061091360008301846108ef565b92915050565b6000819050919050565b61092c81610919565b82525050565b60006020820190506109476000830184610923565b92915050565b600080fd5b61095b81610919565b811461096657600080fd5b50565b60008135905061097881610952565b92915050565b6000602082840312156109945761099361094d565b5b60006109a284828501610969565b91505092915050565b60006040820190506109c060008301856108ef565b6109cd6020830184610923565b9392505050565b6109dd816108a1565b81146109e857600080fd5b50565b6000813590506109fa816109d4565b92915050565b600060208284031215610a1657610a1561094d565b5b6000610a24848285016109eb565b91505092915050565b600082825260208201905092915050565b7f426964206e6f74206869676820656e6f75676800000000000000000000000000600082015250565b6000610a74601383610a2d565b9150610a7f82610a3e565b602082019050919050565b60006020820190508181036000830152610aa381610a67565b9050919050565b7f4e487b7100000000000000000000000000000000000000000000000000000000600052603260045260246000fd5b7f4e487b7100000000000000000000000000000000000000000000000000000000600052601160045260246000fd5b6000610b1382610919565b91507fffffffffffffffffffffffffffffffffffffffffffffffffffffffffffffffff8203610b4557610b44610ad9565b5b600182019050919050565b7f4f776e61626c653a206e6577206f776e657220697320746865207a65726f206160008201527f6464726573730000000000000000000000000000000000000000000000000000602082015250565b6000610bac602683610a2d565b9150610bb782610b50565b604082019050919050565b60006020820190508181036000830152610bdb81610b9f565b9050919050565b7f5265656e7472616e637947756172643a207265656e7472616e742063616c6c00600082015250565b6000610c18601f83610a2d565b9150610c2382610be2565b602082019050919050565b60006020820190508181036000830152610c4781610c0b565b9050919050565b7f4f776e61626c653a2063616c6c6572206973206e6f7420746865206f776e6572600082015250565b6000610c84602083610a2d565b9150610c8f82610c4e565b602082019050919050565b60006020820190508181036000830152610cb381610c77565b9050919050565b7f416464726573733a20696e73756666696369656e742062616c616e6365000000600082015250565b6000610cf0601d83610a2d565b9150610cfb82610cba565b602082019050919050565b60006020820190508181036000830152610d1f81610ce3565b9050919050565b600081905092915050565b50565b6000610d41600083610d26565b9150610d4c82610d31565b600082019050919050565b6000610d6282610d34565b9150819050919050565b7f416464726573733a20756e61626c6520746f2073656e642076616c75652c207260008201527f6563697069656e74206d61792068617665207265766572746564000000000000602082015250565b6000610dc8603a83610a2d565b9150610dd382610d6c565b604082019050919050565b60006020820190508181036000830152610df781610dbb565b905091905056fea2646970667358221220c32e8d67d0562d6a23623f7e4d4adaf60108998bc48105083c69d4458568d18f64736f6c63430008120033",
  "linkReferences": {},
  "deployedLinkReferences": {}
}