{
  "_format": "hh-sol-artifact-1",
  "contractName": "SavingsAccountV2",
  "sourceName": "contracts/SavingsAccountV2.sol",
  "abi": [
    {
      "inputs": [
        {
          "internalType": "address",
          "name": "",
          "type": "address"
        }
      ],
      "name": "balanceOf",
      "outputs": [
        {
          "internalType": "uint256",
          "name": "",
          "type": "uint256"
        }
      ],
      "stateMutability": "view",
      "type": "function"
    },
    {
      "inputs": [],
      "name": "deposit",
      "outputs": [],
      "stateMutability": "payable",
      "type": "function"
    },
    {
      "inputs": [],
      "name": "withdraw",
      "outputs": [],
      "stateMutability": "nonpayable",
      "type": "function"
    }
  ],
  "bytecode": "0x608060405234801561001057600080fd5b506001600081905550610637806100286000396000f3fe6080604052600436106100345760003560e01c80633ccfd60b1461003957806370a0823114610050578063d0e30db01461008d575b600080fd5b34801561004557600080fd5b5061004e610097565b005b34801561005c57600080fd5b506100776004803603810190610072919061037c565b61015c565b60405161008491906103c2565b60405180910390f35b610095610174565b005b61009f6101cc565b6000600160003373ffffffffffffffffffffffffffffffffffffffff1673ffffffffffffffffffffffffffffffffffffffff16815260200190815260200160002054905061010c813373ffffffffffffffffffffffffffffffffffffffff1661021b90919063ffffffff16565b6000600160003373ffffffffffffffffffffffffffffffffffffffff1673ffffffffffffffffffffffffffffffffffffffff168152602001908152602001600020819055505061015a61030f565b565b60016020528060005260406000206000915090505481565b34600160003373ffffffffffffffffffffffffffffffffffffffff1673ffffffffffffffffffffffffffffffffffffffff16815260200190815260200160002060008282546101c3919061040c565b92505081905550565b600260005403610211576040517f08c379a00000000000000000000000000000000000000000000000000000000081526004016102089061049d565b60405180910390fd5b6002600081905550565b8047101561025e576040517f08c379a000000000000000000000000000000000000000000000000000000000815260040161025590610509565b60405180910390fd5b60008273ffffffffffffffffffffffffffffffffffffffff16826040516102849061055a565b60006040518083038185875af1925050503d80600081146102c1576040519150601f19603f3d011682016040523d82523d6000602084013e6102c6565b606091505b505090508061030a576040517f08c379a0000000000000000000000000000000000000000000000000000000008152600401610301906105e1565b60405180910390fd5b505050565b6001600081905550565b600080fd5b600073ffffffffffffffffffffffffffffffffffffffff82169050919050565b60006103498261031e565b9050919050565b6103598161033e565b811461036457600080fd5b50565b60008135905061037681610350565b92915050565b60006020828403121561039257610391610319565b5b60006103a084828501610367565b91505092915050565b6000819050919050565b6103bc816103a9565b82525050565b60006020820190506103d760008301846103b3565b92915050565b7f4e487b7100000000000000000000000000000000000000000000000000000000600052601160045260246000fd5b6000610417826103a9565b9150610422836103a9565b925082820190508082111561043a576104396103dd565b5b92915050565b600082825260208201905092915050565b7f5265656e7472616e637947756172643a207265656e7472616e742063616c6c00600082015250565b6000610487601f83610440565b915061049282610451565b602082019050919050565b600060208201905081810360008301526104b68161047a565b9050919050565b7f416464726573733a20696e73756666696369656e742062616c616e6365000000600082015250565b60006104f3601d83610440565b91506104fe826104bd565b602082019050919050565b60006020820190508181036000830152610522816104e6565b9050919050565b600081905092915050565b50565b6000610544600083610529565b915061054f82610534565b600082019050919050565b600061056582610537565b9150819050919050565b7f416464726573733a20756e61626c6520746f2073656e642076616c75652c207260008201527f6563697069656e74206d61792068617665207265766572746564000000000000602082015250565b60006105cb603a83610440565b91506105d68261056f565b604082019050919050565b600060208201905081810360008301526105fa816105be565b905091905056fea2646970667358221220c2a93c485afb17a1cf886da38188ff6b00a1b332cab6c60e42064927655b270764736f6c63430008120033",
  "linkReferences": {},
  "deployedLinkReferences": {}
}